:020000040000FA
:10000000980200208101000085010000AD0500007C
:1000100000000000000000000000000000000000E0
:100020000000000000000000000000008901000046
:1000300000000000000000008B01000039070000F4
:100040008F0100008F0100008F0100000000000000
:1000500000000000000000008F0100000000000010
:100060000000000000000000C905000000000000C2
:100070008F0100008F0100008F01000011040000BB
:100080008F0100008F0100008F0100008F01000030
:100090008F0100008F0100008F0100008F01000020
:1000A0008F010000910800008F0100008F01000007
:1000B00005070000F9060000ED060000E10600005B
:1000C00000F002F800F04CF812A030C808382418EC
:1000D0002D18AC4201D100F043F80FCCA246AB463C
:1000E0000CA730CF2D1B083F3F197C427F1E544484
:1000F0002D090426F441641EAC4201D300F030F80F
:100100000126334200D0FB1A3343984754465D46DC
:10011000DFE70000AC0C0000CC0C0000103A02D36A
:1001200078C878C1FAD8520701D330C830C101D598
:1001300004680C6070470000704700000023002432
:1001400000250026103A01D378C1FBD8520700D30E
:1001500030C100D50B6070471FB51FBD10B510BD75
:1001600000F023F91146FFF7F7FF00F0C9FB00F09C
:100170003BF903B4FFF7F2FF03BC00F041F90000C4
:1001800006480047FEE7FEE7FEE7FEE7FEE7FEE77C
:1001900003480449024A044B70470000C1000000B4
:1001A00098000020980200209800002000220309F7
:1001B0008B4273D3030A8B4258D3030B8B423CD33D
:1001C000030C8B4221D312E003460B437FD4002261
:1001D00043088B4274D303098B425FD3030A8B42DB
:1001E00044D3030B8B4228D3030C8B420DD309025B
:1001F000FF2212BA030C8B4202D31212090265D0FD
:10020000030B8B4219D300E0090AC30B8B4201D3C5
:10021000CB03C01A5241830B8B4201D38B03C01A0C
:100220005241430B8B4201D34B03C01A5241030B83
:100230008B4201D30B03C01A5241C30A8B4201D334
:10024000CB02C01A5241830A8B4201D38B02C01ADF
:100250005241430A8B4201D34B02C01A5241030A56
:100260008B4201D30B02C01A5241CDD2C3098B423B
:1002700001D3CB01C01A524183098B4201D38B01B8
:10028000C01A524143098B4201D34B01C01A52415B
:1002900003098B4201D30B01C01A5241C3088B42A0
:1002A00001D3CB00C01A524183088B4201D38B008B
:1002B000C01A524143088B4201D34B00C01A52412D
:1002C000411A00D201465241104670475DE0CA0F04
:1002D00000D04942031000D3404253409C460022C4
:1002E00003098B422DD3030A8B4212D38901FC22CE
:1002F00012BA030A8B420CD3890192118B4208D3A4
:10030000890192118B4204D389013AD0921100E005
:100310008909C3098B4201D3CB01C01A5241830919
:100320008B4201D38B01C01A524143098B4201D346
:100330004B01C01A524103098B4201D30B01C01A71
:100340005241C3088B4201D3CB00C01A52418308EB
:100350008B4201D38B00C01A5241D9D243088B4241
:1003600001D34B00C01A5241411A00D201465241FA
:10037000104663465B1001D34042002B00D5494232
:10038000704763465B1000D3404201B50449002822
:1003900002DC491C084000E00846C046C04602BDD9
:1003A000FFFFFF7F704770477047754600F024F8E5
:1003B000AE46050069465346C008C000854618B0E1
:1003C00020B5FFF7E5FE60BCB64600260027C0C595
:1003D000C0C5C0C5C0C5C0C5C0C5C0C5C0C5403DFD
:1003E000490849008D46704710B50446C046C046CE
:1003F0002046FFF7BEFE10BD0048704708000020F1
:1004000001491820ABBEFEE726000200704700003D
:100410000B48016889060FD50A490A88521C0A80D0
:1004200092B2D2087D2A04D3074A01231370002216
:100430000A80064901220A700021C94341607047C1
:100440003800004092000020910000209000002021
:100450000A48016820220A43026001208107084AF5
:100460000A64032252074A6102220A600A6892075C
:10047000FCD40860C00303490860704700E00540F1
:10048000DF2E000000E100E070B51A49884203D376
:1004900033481E49016070BD17494143CD0C0A2104
:1004A0000A466A43821A93B2144AD45C2C4BDC701D
:1004B000134C26466E43360C4E43AD1BADB2555D14
:1004C0009D7085080F4E6E43750C26466E43360CA4
:1004D0004E43AD1BADB2555D5D70C0080A4D45433E
:1004E000280D4443240C4C43001B80B2105C187050
:1004F00070BDC04610270000CDCC0000920D00005A
:100500009A1900007B140000C520000040404040C4
:10051000B0B50C48FF2141600F214A020A494A60E8
:100520000A4A13785B1CDCB2032C00D900235CB2AE
:10053000A40007A52C590C601370D9B2084A515C6D
:100540000160B0BD244004402460044082000020CB
:10055000000200000004000000080000001000007D
:100560008C00002010B55A48F0210160564A1160F5
:100570000C49FF220A604A620F2149020160416270
:1005800001221102084B1C680C431C6019625202C4
:100590001C6814431C601A6202680A43026001620C
:1005A00010BDC0460440044004A00440BFF34F8F78
:1005B000034804490160BFF34F8F00BFFDE7C04609
:1005C0000CED00E00400FA050120C00315490860A5
:1005D0007047C0460120C0030A4948600A682023CA
:1005E00013430B604A680242FCD070470120C003ED
:1005F000044948600A68102313430B604A680242AA
:10060000FCD07047008001400121CA0305490A60FF
:10061000486008681042FCD0086802210140484246
:100620004841704704800140F0B581B0264D2868EC
:10063000F024A04328606868244908406860244E7C
:100640003068204330607462012000F015F9281FE3
:1006500000680006070F14D03068A043306070684F
:100660001A49084070602868204328606C620120A5
:1006700000F002F9301F00682040C019FF224240FC
:1006800000E00022134B19788A4216D1124A1378DF
:10069000DC080020182C0ED85B1C1370DAB2322A4A
:1006A00009D10E4B1A781970914204D04A4011407A
:1006B00000D10A46104601B0F0BD0749002008707D
:1006C0001A7001B0F0BDC04604800440FF00FFFF77
:1006D000046004408600002088000020870000207D
:1006E00001480B4901607047204004400148084917
:1006F000016070472060044001480549016070476F
:1007000020800440014802490160704720A0044055
:10071000FF3F000006480021016205224262016598
:100720000A22026401604160416102480160704731
:1007300000200440902004400120000408490A6879
:1007400002430A6007480168491C0160322906D14A
:10075000002101600448016802224A40026070479B
:1007600010E000E0700000200080044070B5264DCD
:10077000281F00684006410F244C042920D87D2002
:100780000002C0467944097949008F4402171113C9
:10079000090028461038006880070ED520460DE075
:1007A00028460C380068C004204607D5184805E0E4
:1007B000184803E00120C00300E01748174908600B
:1007C00028684007C00E16A10958144E306800F082
:1007D000E5F930602968090704D54000032100F0DD
:1007E000DDF9306031683748154A914204D8024635
:1007F000A14205D9293004E002461932A142F9D8B4
:1008000010461049086070BD10000640006CDC0204
:100810000090D0030024F400001BB70074000020F7
:1008200001000000020000000400000008000000B9
:1008300010000000200000004000000080000000C8
:10084000FF356E01002006400A48014610390A684B
:1008500002239A430A60021F0021116013685B069D
:100860005B0FFBD10160026808239A4302600162BA
:100870007047C0461000064081B00E2141430091F0
:100880000098411E00910028FAD101B07047000085
:100890000B48A749C16001680A4A0A4304218A43F8
:1008A000026070470648074901600A463D3282608F
:1008B0009F4AC26002680A430121114301607047E8
:1008C000000001400000FA5AF0B581B01C46154600
:1008D0000E460746FFF77EFE3846FFF795FE0128D5
:1008E00003D1FFF783FE01B0F0BD3046FFF78CFE69
:1008F0000128F6D02004F4D028786D1C641EF5E79A
:1009000082B0FFF7A1FFFFF731FFFFF703FFFFF70B
:1009100029FEFFF7C7FFFFF79BFDFF20F430019092
:100920008B4F854C06E01825172108182946FFF73C
:100930003DFC31707D487E4901607E48007800288A
:100940001ED000207B4908702178491C2170C9B253
:100950003C2903D120706178491C617061783C2981
:1009600003D16070A178491CA170A178182900D129
:10097000A070A07864214143607808186F4908800E
:100980006F48007800286BD000256D4805706D49D0
:100990000888401C088080B20199884206D96948BD
:1009A0000580694A10780121414011706348008830
:1009B000FFF76AFD654A5078802101435170624813
:1009C000007839784A1E012A04D8002802D15F49EC
:1009D000481C07E0C91E012906D8002804D15B493C
:1009E000C81C891C05700D705A480078002832D048
:1009F000012821D0022831D157490888401C08809D
:100A000056490888401C088080B20199884206D95E
:100A100052480580524A10780121414011705048D7
:100A20000078411E8841800000F0A6F84A480088FE
:100A30004C4988420DD811E0474E3088401C308028
:100A4000022000F099F80198C83880B231888142BC
:100A500004D940480570002000F08EF8FFF758FDDB
:100A6000FFF7E2FD054681280CD0112D2AD1012087
:100A7000384908703878042802D83BA1085C3870DF
:100A8000812D1FD10120334908703878042819D8E6
:100A90000226C046784400794000874412120212B0
:100AA000040004260DE0A078314A907061785170FE
:100AB000304A51701070A020002602233146FFF703
:100AC00003FF3E70A0782A49897881420AD1617873
:100AD000274A52788A4205D13978002902D1022169
:100AE0001C4A117039784A1E012A0AD80121194A74
:100AF0001170A61C182D00D117E7282D00D112E780
:100B000018E7C81E012800D914E701211148017017
:100B1000282D06D0182D00D00CE7661C60783C25E7
:100B200003E7661C60783C253B21FEE60C00014093
:100B3000AA55FA5A910000206B0000208400002082
:100B4000900000207A000020000000208C0000208F
:100B5000890000207D0000207E0000208000002011
:100B60007C00002087130000010301000100000049
:100B7000680000207800002006490C2806D84000B4
:100B8000054A105A08600868400800E0002028392B
:100B90000860704740000040A40D000043088B42ED
:100BA0001AD3002203098B4279D3030A8B425ED306
:100BB000030B8B4242D3030C8B4227D30902FF2243
:100BC00012BA030C8B4202D31212090203D0030B98
:100BD0008B4233D31AE0D3E0411A8041401C704766
:100BE00003460B4371D443088B42F5D3002203091B
:100BF0008B4254D3030A8B4239D3030B8B421DD350
:100C0000030C8B4202D394466EE0090AC30B8B425D
:100C100001D3CB03C01A5241830B8B4201D38B0308
:100C2000C01A5241430B8B4201D34B03C01A5241AD
:100C3000030B8B4201D30B03C01A5241C30A8B42F0
:100C400001D3CB02C01A5241830A8B4201D38B02DB
:100C5000C01A5241430A8B4201D34B02C01A52417F
:100C6000030A8B4201D30B02C01A5241CDD2C309F1
:100C70008B4201D3CB01C01A524183098B4201D36D
:100C80008B01C01A524143098B4201D34B01C01A58
:100C9000524103098B4201D30B01C01A5241C308D0
:100CA0008B4201D3CB00C01A524183088B4201D33F
:100CB0008B00C01A524143088B4201D34B00C01A2B
:100CC0005241411A524110007047CA0F00D04942A8
:100CD000031000D34042534000229C4603098B423C
:100CE0002DD3030A8B4212D38901FC2212BA030AC4
:100CF0008B420CD3890192118B4208D38901921146
:100D00008B4204D3890137D0921100E08909C309CD
:100D10008B4201D3CB01C01A524183098B4201D3CC
:100D20008B01C01A524143098B4201D34B01C01AB7
:100D3000524103098B4201D30B01C01A5241C3082F
:100D40008B4201D3CB00C01A524183088B4201D39E
:100D50008B00C01A5241D9D243088B4201D34B00B9
:100D6000C01A5241411A00D2014652411046634610
:100D70005B1000D34042704763465B1000D3404293
:100D800001B50021004201D0C9430846C046C04613
:100D900002BD3F065B4F666D7D077F6F777C395ED6
:100DA000797171001A001800170016001400130062
:100DB0001200110010000F000E000D000D000000C9
:100DC000E00D000000000020080000001C010000F1
:100DD000E80D000008000020900200003C01000027
:080DE00001000000000000000A
:020000040000FA
:047FFC005555AAAA83
:04000005000000C136
:00000001FF
