:020000040000FA
:10000000980200208101000085010000F905000030
:1000100000000000000000000000000000000000E0
:100020000000000000000000000000008901000046
:1000300000000000000000008B010000CD07000060
:100040008F0100008F0100008F0100000000000000
:1000500000000000000000008F0100000000000010
:100060000000000000000000150600000000000075
:100070008F0100008F0100008F01000021040000AB
:100080005D0400008F0100008F0100008F0100005F
:100090008F0100008F0100008F0100008F01000020
:1000A00011040000250900008F0100008F010000ED
:1000B000990700008D070000810700007507000008
:1000C00000F002F800F04CF812A030C808382418EC
:1000D0002D18AC4201D100F043F80FCCA246AB463C
:1000E0000CA730CF2D1B083F3F197C427F1E544484
:1000F0002D090426F441641EAC4201D300F030F80F
:100100000126334200D0FB1A3343984754465D46DC
:10011000DFE70000F00E0000100F0000103A02D3DD
:1001200078C878C1FAD8520701D330C830C101D598
:1001300004680C6070470000704700000023002432
:1001400000250026103A01D378C1FBD8520700D30E
:1001500030C100D50B6070471FB51FBD10B510BD75
:1001600000F023F91146FFF7F7FF00F043FC00F021
:100170003BF903B4FFF7F2FF03BC00F041F90000C4
:1001800006480047FEE7FEE7FEE7FEE7FEE7FEE77C
:1001900003480449024A044B70470000C1000000B4
:1001A00098000020980200209800002000220309F7
:1001B0008B4273D3030A8B4258D3030B8B423CD33D
:1001C000030C8B4221D312E003460B437FD4002261
:1001D00043088B4274D303098B425FD3030A8B42DB
:1001E00044D3030B8B4228D3030C8B420DD309025B
:1001F000FF2212BA030C8B4202D31212090265D0FD
:10020000030B8B4219D300E0090AC30B8B4201D3C5
:10021000CB03C01A5241830B8B4201D38B03C01A0C
:100220005241430B8B4201D34B03C01A5241030B83
:100230008B4201D30B03C01A5241C30A8B4201D334
:10024000CB02C01A5241830A8B4201D38B02C01ADF
:100250005241430A8B4201D34B02C01A5241030A56
:100260008B4201D30B02C01A5241CDD2C3098B423B
:1002700001D3CB01C01A524183098B4201D38B01B8
:10028000C01A524143098B4201D34B01C01A52415B
:1002900003098B4201D30B01C01A5241C3088B42A0
:1002A00001D3CB00C01A524183088B4201D38B008B
:1002B000C01A524143088B4201D34B00C01A52412D
:1002C000411A00D201465241104670475DE0CA0F04
:1002D00000D04942031000D3404253409C460022C4
:1002E00003098B422DD3030A8B4212D38901FC22CE
:1002F00012BA030A8B420CD3890192118B4208D3A4
:10030000890192118B4204D389013AD0921100E005
:100310008909C3098B4201D3CB01C01A5241830919
:100320008B4201D38B01C01A524143098B4201D346
:100330004B01C01A524103098B4201D30B01C01A71
:100340005241C3088B4201D3CB00C01A52418308EB
:100350008B4201D38B00C01A5241D9D243088B4241
:1003600001D34B00C01A5241411A00D201465241FA
:10037000104663465B1001D34042002B00D5494232
:10038000704763465B1000D3404201B50449002822
:1003900002DC491C084000E00846C046C04602BDD9
:1003A000FFFFFF7F704770477047754600F024F8E5
:1003B000AE46050069465346C008C000854618B0E1
:1003C00020B5FFF7E5FE60BCB64600260027C0C595
:1003D000C0C5C0C5C0C5C0C5C0C5C0C5C0C5403DFD
:1003E000490849008D46704710B50446C046C046CE
:1003F0002046FFF7BEFE10BD0048704708000020F1
:1004000001491820ABBEFEE726000200704700003D
:10041000014802490160704718600240FFFFFF0F6A
:100420000148016841607047380000408448016815
:1004300020220A43026001208107244A0A64002224
:100440008A614961044A4A6302220A600A68920783
:10045000FCD408607047C0461100100010B50B486E
:1004600001688A060ED50A4B01221A70094B1C88B6
:10047000641C1C80A4B2E4087D2C03D3064C2270BB
:1004800000221A8089B2416010BDC0463820004069
:100490009400002096000020950000206848016824
:1004A00040220A43026008480849016403214907C1
:1004B00041610221016001688907FCD401210160CA
:1004C000080403490860704700200040DF2E000048
:1004D00000E100E070B51A49884203D333481E4951
:1004E000016070BD17494143CD0C0A210A466A4399
:1004F000821A93B2144AD45C2C4BDC70134C2646FF
:100500006E43360C4E43AD1BADB2555D9D708508F4
:100510000F4E6E43750C26466E43360C4E43AD1B94
:10052000ADB2555D5D70C0080A4D4543280D44438A
:10053000240C4C43001B80B2105C187070BDC04688
:1005400010270000CDCC0000D60F00009A19000043
:100550007B140000C520000040404040B0B50C486E
:10056000FF2141600F214A020A494A600A4A137872
:100570005B1CDCB2032C00D900235CB2A40007A5ED
:100580002C590C601370D9B2084A515C0160B0BD9F
:100590002440044024600440860000200002000043
:1005A000000400000008000000100000900000207F
:1005B00010B56C48F0210160684A11600C49FF22B7
:1005C0000A604A620F214902016041620122110260
:1005D000084B1C680C431C60196252021C681443CF
:1005E0001C601A6202680A430260016210BDC046C4
:1005F0000440044004A00440BFF34F8F0348044963
:100600000160BFF34F8F00BFFDE7C0460CED00E077
:100610000400FA050120C003274908607047C0465E
:1006200001204105064A13680B4313601A490E2244
:100630000A624A6200020A6802430A607047C046C2
:1006400000E005400120C003134948600A682023E8
:1006500013430B604A680242FCD070470120C0037C
:100660000D4948600A68102313430B604A68024230
:10067000FCD070470121CA0307494A60002801D015
:10068000022000E004200B6803430B60486810421E
:10069000FCD0C868C0B27047008001400121CA0385
:1006A00005490A60486008681042FCD008680221C9
:1006B000014048424841704704800140F0B581B094
:1006C000264D2868F024A043286068682449084023
:1006D0006860244E3068204330607462012000F06E
:1006E00015F9281F00680006070F14D03068A043D2
:1006F000306070681A49084070602868204328609C
:100700006C62012000F002F9301F00682040C0191F
:10071000FF22424000E00022134B19788A4216D192
:10072000124A1378DC080020182C0ED85B1C1370BA
:10073000DAB2322A09D10E4B1A781970914204D0DC
:100740004A40114000D10A46104601B0F0BD0749A9
:10075000002008701A7001B0F0BDC046048004404B
:10076000FF00FFFF046004408C0000208E0000208A
:100770008D00002001480B49016070472040044073
:10078000014808490160704720600440014805495C
:1007900001607047208004400148024901607047B1
:1007A00020A00440FF3F000006480021016205220E
:1007B000426201650A2202640160416041610248AF
:1007C0000160704700200440902004400120000494
:1007D00008490A6802430A6007480168491C016029
:1007E000322906D1002101600448016802224A40F2
:1007F0000260704710E000E07000002000800440BC
:1008000070B5264D281F00684006410F244C04296E
:1008100020D87D200002C0467944097949008F44E0
:1008200002171113090028461038006880070ED5FA
:1008300020460DE028460C380068C004204607D545
:10084000184805E0184803E00120C00300E01748FD
:100850001749086028684007C00E16A10958144EB1
:10086000306800F0BDFA30602968090704D54000FF
:10087000032100F0B5FA306031683748154A9142DB
:1008800004D80246A14205D9293004E002461932B3
:10089000A142F9D810461049086070BD100006400A
:1008A000006CDC020090D0030024F400001BB700B1
:1008B000740000200100000002000000040000009D
:1008C00008000000100000002000000040000000B0
:1008D00080000000FF356E01002006400A480146F6
:1008E00010390A6802239A430A60021F002111602E
:1008F00013685B065B0FFBD10160026808239A4313
:10090000026001627047C0461000064081B00E21AF
:10091000414300910098411E00910028FAD101B096
:10092000704700000B480D49C16001680A4A0A433C
:1009300004218A43026070470648074901600A465D
:100940003D328260054AC26002680A4301211143B8
:1009500001607047000001400000FA5AAA55FA5A97
:10096000F0B581B01D4614460F460646FFF76AFEF5
:10097000FE203040FFF792FE01281AD03846FFF7DC
:100980008DFE012815D0FFF75DFE3046FFF786FE8D
:1009900001280ED0022D08D30020FFF76BFE207037
:1009A000641C6D1EA8B20128F6D80120FFF762FE74
:1009B0002070FFF753FE01B0F0BDF0B581B01C46CA
:1009C00015460E460746FFF73DFE3846FFF766FE22
:1009D000012803D1FFF742FE01B0F0BD3046FFF71A
:1009E0005DFE0128F6D02004F4D028786D1C641E2A
:1009F000F5E7000086B0FFF771FFFFF701FFFFF793
:100A0000D3FEFFF7D5FDFFF797FFFFF709FEFFF7CE
:100A10000DFDD4480168012421430226B143016041
:100A2000FFF73CFDA1200025CF4F29463A4600960E
:100A30003346FFF795FF3878CC498870787848704E
:100A4000FF200290F430049020020390059460028D
:100A50000190CB4CCC4E0BE00121CD4A1170C9491D
:100A60000D80B71C182117221018FFF79FFB397053
:100A7000C048C1490160FFF721FE0746BF48007822
:100A800000284FD02078FD210140012907D1BD4920
:100A90000888C01C088080B21D281FD824E00428C4
:100AA00001D0022820D1B7490888C01C088080B234
:100AB0001E2819D3B078AD4A907071785170AA4A47
:100AC00051701070A02000210223FFF776FFAF497C
:100AD0008878B07048787070087830702570A948B0
:100AE00005800598AA490870A44805703078401C14
:100AF0003070C0B23C2803D135707078401C7070E3
:100B000070783C2803D17570B078401CB070B07814
:100B1000182800D1B570B078642141437078081866
:100B20009C4908809C480078002860D09A4805704D
:100B30009A490888401C088080B20499884206D9E6
:100B400096480580964A107805994840107091485B
:100B50000088FFF7BFFC934A517880200143517011
:100B600021784A1E012A05D88D49097800290CD020
:100B7000039807E0C81E012814D889480078002887
:100B80000AD001987A4948600CE00399784A1160CC
:100B9000844948700D7005E00198754908608148E6
:100BA000C57085707A480078022834D0012805D0B5
:100BB00000281AD1FF2000F0FFF816E07A4C2088B8
:100BC000401C2080022000F0F7F80498C83880B25A
:100BD00021886B4C814208D96D480570FF2000F0D8
:100BE000EBF87248057070480580FFF7B7FC812F5D
:100BF0003ED0112F00D073E0059865490870207829
:100C000004282CD87844007940008744022B022520
:100C10000200059829E064490888401C088064495E
:100C20000888401C088080B20499884206D9604830
:100C300005805E4A10780599484010705B4800783E
:100C40000028029800D0009800F0B6F856480088B6
:100C500058498842C0D2C8E74A4805802570812F8C
:100C60003ED105E04748058003202070812F37D111
:100C70000120474908702078042831D87844007949
:100C800040008744020228020B00B0783F49887078
:100C90007078487030780870022020E0394805806C
:100CA000B078324A9070717851702F4A517010703C
:100CB000A02002232946FFF780FE344908783070CF
:100CC0008878B07049787170642242435018314975
:100CD0000880284603E000202A490880042020706C
:100CE000B0782249897881420DD171781F4A5278B3
:100CF0008A4208D13178002905D12178002902D112
:100D00000221234A117021784A1E012A0DD8282F6A
:100D100000D1A1E6182F00D0AAE601221C490A70D2
:100D200018490D80B71C18219EE6C81E012800D95D
:100D30009EE6282F0BD0182F00D099E6059A14486C
:100D4000027010480580771C70783C218CE60120E9
:100D50000F4908700B480580771C70783C213B22B6
:100D600082E6C046002004407B000020680000208E
:100D700024A004400C000140AA55FA5A9500002016
:100D80008F0000208A0000206B00002078000020E7
:100D90008100002088000020940000207E000020B8
:100DA0000000002090000020820000208000002031
:100DB0008400002088130000012291070C280AD823
:100DC0004000064B185A0864086C400888610020EF
:100DD00008600A607047002088617047E80F0000D3
:100DE00043088B421AD3002203098B4279D3030AAA
:100DF0008B425ED3030B8B4242D3030C8B4227D32F
:100E00000902FF2212BA030C8B4202D3121209020A
:100E100003D0030B8B4233D31AE0D3E0411A804155
:100E2000401C704703460B4371D443088B42F5D3F3
:100E3000002203098B4254D3030A8B4239D3030B9C
:100E40008B421DD3030C8B4202D394466EE0090AF9
:100E5000C30B8B4201D3CB03C01A5241830B8B428D
:100E600001D38B03C01A5241430B8B4201D34B0376
:100E7000C01A5241030B8B4201D30B03C01A5241DB
:100E8000C30A8B4201D3CB02C01A5241830A8B4260
:100E900001D38B02C01A5241430A8B4201D34B0249
:100EA000C01A5241030A8B4201D30B02C01A5241AD
:100EB000CDD2C3098B4201D3CB01C01A5241830961
:100EC0008B4201D38B01C01A524143098B4201D39B
:100ED0004B01C01A524103098B4201D30B01C01AC6
:100EE0005241C3088B4201D3CB00C01A5241830840
:100EF0008B4201D38B00C01A524143088B4201D36D
:100F00004B00C01A5241411A524110007047CA0F9B
:100F100000D04942031000D34042534000229C4677
:100F200003098B422DD3030A8B4212D38901FC2281
:100F300012BA030A8B420CD3890192118B4208D357
:100F4000890192118B4204D3890137D0921100E0BC
:100F50008909C3098B4201D3CB01C01A52418309CD
:100F60008B4201D38B01C01A524143098B4201D3FA
:100F70004B01C01A524103098B4201D30B01C01A25
:100F80005241C3088B4201D3CB00C01A524183089F
:100F90008B4201D38B00C01A5241D9D243088B42F5
:100FA00001D34B00C01A5241411A00D201465241AE
:100FB000104663465B1000D34042704763465B10A7
:100FC00000D3404201B50021004201D0C943084688
:100FD000C046C04602BD3F065B4F666D7D077F6F12
:100FE000777C395E797171002BB31CA99E9FA996FD
:100FF000348E3986B07E9477DE70886A8E64E95EBE
:101000009559000028100000000000200800000092
:101010001C010000301000000800002090020000B9
:101020003C01000000000000010000000000000082
:020000040000FA
:047FFC005555AAAA83
:04000005000000C136
:00000001FF
